{
  "contractName": "DAOGovernor",
  "abi": [
    {
      "inputs": [
        {
          "internalType": "contract IVotes",
          "name": "_token",
          "type": "address"
        }
      ],
      "stateMutability": "nonpayable",
      "type": "constructor"
    },
    {
      "inputs": [],
      "name": "Empty",
      "type": "error"
    },
    {
      "anonymous": false,
      "inputs": [
        {
          "indexed": false,
          "internalType": "uint256",
          "name": "proposalId",
          "type": "uint256"
        }
      ],
      "name": "ProposalCanceled",
      "type": "event"
    },
    {
      "anonymous": false,
      "inputs": [
        {
          "indexed": false,
          "internalType": "uint256",
          "name": "proposalId",
          "type": "uint256"
        },
        {
          "indexed": false,
          "internalType": "address",
          "name": "proposer",
          "type": "address"
        },
        {
          "indexed": false,
          "internalType": "address[]",
          "name": "targets",
          "type": "address[]"
        },
        {
          "indexed": false,
          "internalType": "uint256[]",
          "name": "values",
          "type": "uint256[]"
        },
        {
          "indexed": false,
          "internalType": "string[]",
          "name": "signatures",
          "type": "string[]"
        },
        {
          "indexed": false,
          "internalType": "bytes[]",
          "name": "calldatas",
          "type": "bytes[]"
        },
        {
          "indexed": false,
          "internalType": "uint256",
          "name": "startBlock",
          "type": "uint256"
        },
        {
          "indexed": false,
          "internalType": "uint256",
          "name": "endBlock",
          "type": "uint256"
        },
        {
          "indexed": false,
          "internalType": "string",
          "name": "description",
          "type": "string"
        }
      ],
      "name": "ProposalCreated",
      "type": "event"
    },
    {
      "anonymous": false,
      "inputs": [
        {
          "indexed": false,
          "internalType": "uint256",
          "name": "proposalId",
          "type": "uint256"
        }
      ],
      "name": "ProposalExecuted",
      "type": "event"
    },
    {
      "anonymous": false,
      "inputs": [
        {
          "indexed": false,
          "internalType": "uint256",
          "name": "oldQuorumNumerator",
          "type": "uint256"
        },
        {
          "indexed": false,
          "internalType": "uint256",
          "name": "newQuorumNumerator",
          "type": "uint256"
        }
      ],
      "name": "QuorumNumeratorUpdated",
      "type": "event"
    },
    {
      "anonymous": false,
      "inputs": [
        {
          "indexed": true,
          "internalType": "address",
          "name": "voter",
          "type": "address"
        },
        {
          "indexed": false,
          "internalType": "uint256",
          "name": "proposalId",
          "type": "uint256"
        },
        {
          "indexed": false,
          "internalType": "uint8",
          "name": "support",
          "type": "uint8"
        },
        {
          "indexed": false,
          "internalType": "uint256",
          "name": "weight",
          "type": "uint256"
        },
        {
          "indexed": false,
          "internalType": "string",
          "name": "reason",
          "type": "string"
        }
      ],
      "name": "VoteCast",
      "type": "event"
    },
    {
      "anonymous": false,
      "inputs": [
        {
          "indexed": true,
          "internalType": "address",
          "name": "voter",
          "type": "address"
        },
        {
          "indexed": false,
          "internalType": "uint256",
          "name": "proposalId",
          "type": "uint256"
        },
        {
          "indexed": false,
          "internalType": "uint8",
          "name": "support",
          "type": "uint8"
        },
        {
          "indexed": false,
          "internalType": "uint256",
          "name": "weight",
          "type": "uint256"
        },
        {
          "indexed": false,
          "internalType": "string",
          "name": "reason",
          "type": "string"
        },
        {
          "indexed": false,
          "internalType": "bytes",
          "name": "params",
          "type": "bytes"
        }
      ],
      "name": "VoteCastWithParams",
      "type": "event"
    },
    {
      "inputs": [],
      "name": "BALLOT_TYPEHASH",
      "outputs": [
        {
          "internalType": "bytes32",
          "name": "",
          "type": "bytes32"
        }
      ],
      "stateMutability": "view",
      "type": "function"
    },
    {
      "inputs": [],
      "name": "COUNTING_MODE",
      "outputs": [
        {
          "internalType": "string",
          "name": "",
          "type": "string"
        }
      ],
      "stateMutability": "pure",
      "type": "function"
    },
    {
      "inputs": [],
      "name": "EXTENDED_BALLOT_TYPEHASH",
      "outputs": [
        {
          "internalType": "bytes32",
          "name": "",
          "type": "bytes32"
        }
      ],
      "stateMutability": "view",
      "type": "function"
    },
    {
      "inputs": [
        {
          "internalType": "uint256",
          "name": "proposalId",
          "type": "uint256"
        },
        {
          "internalType": "uint8",
          "name": "support",
          "type": "uint8"
        }
      ],
      "name": "castVote",
      "outputs": [
        {
          "internalType": "uint256",
          "name": "",
          "type": "uint256"
        }
      ],
      "stateMutability": "nonpayable",
      "type": "function"
    },
    {
      "inputs": [
        {
          "internalType": "uint256",
          "name": "proposalId",
          "type": "uint256"
        },
        {
          "internalType": "uint8",
          "name": "support",
          "type": "uint8"
        },
        {
          "internalType": "uint8",
          "name": "v",
          "type": "uint8"
        },
        {
          "internalType": "bytes32",
          "name": "r",
          "type": "bytes32"
        },
        {
          "internalType": "bytes32",
          "name": "s",
          "type": "bytes32"
        }
      ],
      "name": "castVoteBySig",
      "outputs": [
        {
          "internalType": "uint256",
          "name": "",
          "type": "uint256"
        }
      ],
      "stateMutability": "nonpayable",
      "type": "function"
    },
    {
      "inputs": [
        {
          "internalType": "uint256",
          "name": "proposalId",
          "type": "uint256"
        },
        {
          "internalType": "uint8",
          "name": "support",
          "type": "uint8"
        },
        {
          "internalType": "string",
          "name": "reason",
          "type": "string"
        }
      ],
      "name": "castVoteWithReason",
      "outputs": [
        {
          "internalType": "uint256",
          "name": "",
          "type": "uint256"
        }
      ],
      "stateMutability": "nonpayable",
      "type": "function"
    },
    {
      "inputs": [
        {
          "internalType": "uint256",
          "name": "proposalId",
          "type": "uint256"
        },
        {
          "internalType": "uint8",
          "name": "support",
          "type": "uint8"
        },
        {
          "internalType": "string",
          "name": "reason",
          "type": "string"
        },
        {
          "internalType": "bytes",
          "name": "params",
          "type": "bytes"
        }
      ],
      "name": "castVoteWithReasonAndParams",
      "outputs": [
        {
          "internalType": "uint256",
          "name": "",
          "type": "uint256"
        }
      ],
      "stateMutability": "nonpayable",
      "type": "function"
    },
    {
      "inputs": [
        {
          "internalType": "uint256",
          "name": "proposalId",
          "type": "uint256"
        },
        {
          "internalType": "uint8",
          "name": "support",
          "type": "uint8"
        },
        {
          "internalType": "string",
          "name": "reason",
          "type": "string"
        },
        {
          "internalType": "bytes",
          "name": "params",
          "type": "bytes"
        },
        {
          "internalType": "uint8",
          "name": "v",
          "type": "uint8"
        },
        {
          "internalType": "bytes32",
          "name": "r",
          "type": "bytes32"
        },
        {
          "internalType": "bytes32",
          "name": "s",
          "type": "bytes32"
        }
      ],
      "name": "castVoteWithReasonAndParamsBySig",
      "outputs": [
        {
          "internalType": "uint256",
          "name": "",
          "type": "uint256"
        }
      ],
      "stateMutability": "nonpayable",
      "type": "function"
    },
    {
      "inputs": [
        {
          "internalType": "address[]",
          "name": "targets",
          "type": "address[]"
        },
        {
          "internalType": "uint256[]",
          "name": "values",
          "type": "uint256[]"
        },
        {
          "internalType": "bytes[]",
          "name": "calldatas",
          "type": "bytes[]"
        },
        {
          "internalType": "bytes32",
          "name": "descriptionHash",
          "type": "bytes32"
        }
      ],
      "name": "execute",
      "outputs": [
        {
          "internalType": "uint256",
          "name": "",
          "type": "uint256"
        }
      ],
      "stateMutability": "payable",
      "type": "function"
    },
    {
      "inputs": [
        {
          "internalType": "address",
          "name": "account",
          "type": "address"
        },
        {
          "internalType": "uint256",
          "name": "blockNumber",
          "type": "uint256"
        }
      ],
      "name": "getVotes",
      "outputs": [
        {
          "internalType": "uint256",
          "name": "",
          "type": "uint256"
        }
      ],
      "stateMutability": "view",
      "type": "function"
    },
    {
      "inputs": [
        {
          "internalType": "address",
          "name": "account",
          "type": "address"
        },
        {
          "internalType": "uint256",
          "name": "blockNumber",
          "type": "uint256"
        },
        {
          "internalType": "bytes",
          "name": "params",
          "type": "bytes"
        }
      ],
      "name": "getVotesWithParams",
      "outputs": [
        {
          "internalType": "uint256",
          "name": "",
          "type": "uint256"
        }
      ],
      "stateMutability": "view",
      "type": "function"
    },
    {
      "inputs": [
        {
          "internalType": "uint256",
          "name": "proposalId",
          "type": "uint256"
        },
        {
          "internalType": "address",
          "name": "account",
          "type": "address"
        }
      ],
      "name": "hasVoted",
      "outputs": [
        {
          "internalType": "bool",
          "name": "",
          "type": "bool"
        }
      ],
      "stateMutability": "view",
      "type": "function"
    },
    {
      "inputs": [
        {
          "internalType": "address[]",
          "name": "targets",
          "type": "address[]"
        },
        {
          "internalType": "uint256[]",
          "name": "values",
          "type": "uint256[]"
        },
        {
          "internalType": "bytes[]",
          "name": "calldatas",
          "type": "bytes[]"
        },
        {
          "internalType": "bytes32",
          "name": "descriptionHash",
          "type": "bytes32"
        }
      ],
      "name": "hashProposal",
      "outputs": [
        {
          "internalType": "uint256",
          "name": "",
          "type": "uint256"
        }
      ],
      "stateMutability": "pure",
      "type": "function"
    },
    {
      "inputs": [],
      "name": "name",
      "outputs": [
        {
          "internalType": "string",
          "name": "",
          "type": "string"
        }
      ],
      "stateMutability": "view",
      "type": "function"
    },
    {
      "inputs": [
        {
          "internalType": "address",
          "name": "",
          "type": "address"
        },
        {
          "internalType": "address",
          "name": "",
          "type": "address"
        },
        {
          "internalType": "uint256[]",
          "name": "",
          "type": "uint256[]"
        },
        {
          "internalType": "uint256[]",
          "name": "",
          "type": "uint256[]"
        },
        {
          "internalType": "bytes",
          "name": "",
          "type": "bytes"
        }
      ],
      "name": "onERC1155BatchReceived",
      "outputs": [
        {
          "internalType": "bytes4",
          "name": "",
          "type": "bytes4"
        }
      ],
      "stateMutability": "nonpayable",
      "type": "function"
    },
    {
      "inputs": [
        {
          "internalType": "address",
          "name": "",
          "type": "address"
        },
        {
          "internalType": "address",
          "name": "",
          "type": "address"
        },
        {
          "internalType": "uint256",
          "name": "",
          "type": "uint256"
        },
        {
          "internalType": "uint256",
          "name": "",
          "type": "uint256"
        },
        {
          "internalType": "bytes",
          "name": "",
          "type": "bytes"
        }
      ],
      "name": "onERC1155Received",
      "outputs": [
        {
          "internalType": "bytes4",
          "name": "",
          "type": "bytes4"
        }
      ],
      "stateMutability": "nonpayable",
      "type": "function"
    },
    {
      "inputs": [
        {
          "internalType": "address",
          "name": "",
          "type": "address"
        },
        {
          "internalType": "address",
          "name": "",
          "type": "address"
        },
        {
          "internalType": "uint256",
          "name": "",
          "type": "uint256"
        },
        {
          "internalType": "bytes",
          "name": "",
          "type": "bytes"
        }
      ],
      "name": "onERC721Received",
      "outputs": [
        {
          "internalType": "bytes4",
          "name": "",
          "type": "bytes4"
        }
      ],
      "stateMutability": "nonpayable",
      "type": "function"
    },
    {
      "inputs": [
        {
          "internalType": "uint256",
          "name": "proposalId",
          "type": "uint256"
        }
      ],
      "name": "proposalDeadline",
      "outputs": [
        {
          "internalType": "uint256",
          "name": "",
          "type": "uint256"
        }
      ],
      "stateMutability": "view",
      "type": "function"
    },
    {
      "inputs": [
        {
          "internalType": "uint256",
          "name": "proposalId",
          "type": "uint256"
        }
      ],
      "name": "proposalSnapshot",
      "outputs": [
        {
          "internalType": "uint256",
          "name": "",
          "type": "uint256"
        }
      ],
      "stateMutability": "view",
      "type": "function"
    },
    {
      "inputs": [],
      "name": "proposalThreshold",
      "outputs": [
        {
          "internalType": "uint256",
          "name": "",
          "type": "uint256"
        }
      ],
      "stateMutability": "view",
      "type": "function"
    },
    {
      "inputs": [
        {
          "internalType": "uint256",
          "name": "proposalId",
          "type": "uint256"
        }
      ],
      "name": "proposalVotes",
      "outputs": [
        {
          "internalType": "uint256",
          "name": "againstVotes",
          "type": "uint256"
        },
        {
          "internalType": "uint256",
          "name": "forVotes",
          "type": "uint256"
        },
        {
          "internalType": "uint256",
          "name": "abstainVotes",
          "type": "uint256"
        }
      ],
      "stateMutability": "view",
      "type": "function"
    },
    {
      "inputs": [
        {
          "internalType": "address[]",
          "name": "targets",
          "type": "address[]"
        },
        {
          "internalType": "uint256[]",
          "name": "values",
          "type": "uint256[]"
        },
        {
          "internalType": "bytes[]",
          "name": "calldatas",
          "type": "bytes[]"
        },
        {
          "internalType": "string",
          "name": "description",
          "type": "string"
        }
      ],
      "name": "propose",
      "outputs": [
        {
          "internalType": "uint256",
          "name": "",
          "type": "uint256"
        }
      ],
      "stateMutability": "nonpayable",
      "type": "function"
    },
    {
      "inputs": [],
      "name": "quorumDenominator",
      "outputs": [
        {
          "internalType": "uint256",
          "name": "",
          "type": "uint256"
        }
      ],
      "stateMutability": "view",
      "type": "function"
    },
    {
      "inputs": [
        {
          "internalType": "uint256",
          "name": "blockNumber",
          "type": "uint256"
        }
      ],
      "name": "quorumNumerator",
      "outputs": [
        {
          "internalType": "uint256",
          "name": "",
          "type": "uint256"
        }
      ],
      "stateMutability": "view",
      "type": "function"
    },
    {
      "inputs": [],
      "name": "quorumNumerator",
      "outputs": [
        {
          "internalType": "uint256",
          "name": "",
          "type": "uint256"
        }
      ],
      "stateMutability": "view",
      "type": "function"
    },
    {
      "inputs": [
        {
          "internalType": "address",
          "name": "target",
          "type": "address"
        },
        {
          "internalType": "uint256",
          "name": "value",
          "type": "uint256"
        },
        {
          "internalType": "bytes",
          "name": "data",
          "type": "bytes"
        }
      ],
      "name": "relay",
      "outputs": [],
      "stateMutability": "payable",
      "type": "function"
    },
    {
      "inputs": [
        {
          "internalType": "uint256",
          "name": "proposalId",
          "type": "uint256"
        }
      ],
      "name": "state",
      "outputs": [
        {
          "internalType": "enum IGovernor.ProposalState",
          "name": "",
          "type": "uint8"
        }
      ],
      "stateMutability": "view",
      "type": "function"
    },
    {
      "inputs": [
        {
          "internalType": "bytes4",
          "name": "interfaceId",
          "type": "bytes4"
        }
      ],
      "name": "supportsInterface",
      "outputs": [
        {
          "internalType": "bool",
          "name": "",
          "type": "bool"
        }
      ],
      "stateMutability": "view",
      "type": "function"
    },
    {
      "inputs": [],
      "name": "token",
      "outputs": [
        {
          "internalType": "contract IVotes",
          "name": "",
          "type": "address"
        }
      ],
      "stateMutability": "view",
      "type": "function"
    },
    {
      "inputs": [
        {
          "internalType": "uint256",
          "name": "newQuorumNumerator",
          "type": "uint256"
        }
      ],
      "name": "updateQuorumNumerator",
      "outputs": [],
      "stateMutability": "nonpayable",
      "type": "function"
    },
    {
      "inputs": [],
      "name": "version",
      "outputs": [
        {
          "internalType": "string",
          "name": "",
          "type": "string"
        }
      ],
      "stateMutability": "view",
      "type": "function"
    },
    {
      "stateMutability": "payable",
      "type": "receive"
    },
    {
      "inputs": [],
      "name": "votingDelay",
      "outputs": [
        {
          "internalType": "uint256",
          "name": "",
          "type": "uint256"
        }
      ],
      "stateMutability": "pure",
      "type": "function"
    },
    {
      "inputs": [],
      "name": "votingPeriod",
      "outputs": [
        {
          "internalType": "uint256",
          "name": "",
          "type": "uint256"
        }
      ],
      "stateMutability": "pure",
      "type": "function"
    },
    {
      "inputs": [
        {
          "internalType": "uint256",
          "name": "blockNumber",
          "type": "uint256"
        }
      ],
      "name": "quorum",
      "outputs": [
        {
          "internalType": "uint256",
          "name": "",
          "type": "uint256"
        }
      ],
      "stateMutability": "view",
      "type": "function"
    }
  ],
  "bytecode": "0x6101606040523480156200001257600080fd5b5060405162006b5e38038062006b5e833981810160405281019062000038919062000a32565b6004816040518060400160405280600b81526020017f44616f476f7665726e6f7200000000000000000000000000000000000000000081525080620000826200019660201b60201c565b60008280519060200120905060008280519060200120905060007f8b73c3c69bb8fe3d512ecc4cf759cc79239f7b179b0ffacaa9a75d522b39400f90508260e081815250508161010081815250504660a08181525050620000eb818484620001d360201b60201c565b608081815250503073ffffffffffffffffffffffffffffffffffffffff1660c08173ffffffffffffffffffffffffffffffffffffffff16815250508061012081815250505050505050806000908162000145919062000cde565b50508073ffffffffffffffffffffffffffffffffffffffff166101408173ffffffffffffffffffffffffffffffffffffffff1681525050506200018e816200020f60201b60201c565b505062001167565b60606040518060400160405280600181526020017f3100000000000000000000000000000000000000000000000000000000000000815250905090565b60008383834630604051602001620001f095949392919062000e02565b6040516020818303038152906040528051906020012090509392505050565b6200021f620003e460201b60201c565b81111562000264576040517f08c379a00000000000000000000000000000000000000000000000000000000081526004016200025b9062000f0c565b60405180910390fd5b600062000276620003ed60201b60201c565b9050600081141580156200029257506000600660000180549050145b156200038d5760066000016040518060400160405280600063ffffffff168152602001620002c6846200043e60201b60201c565b7bffffffffffffffffffffffffffffffffffffffffffffffffffffffff168152509080600181540180825580915050600190039060005260206000200160009091909190915060008201518160000160006101000a81548163ffffffff021916908363ffffffff16021790555060208201518160000160046101000a8154817bffffffffffffffffffffffffffffffffffffffffffffffffffffffff02191690837bffffffffffffffffffffffffffffffffffffffffffffffffffffffff16021790555050505b620003a3826006620004ac60201b90919060201c565b50507f0553476bf02ef2726e8ce5ced78d63e26e602e4a2257b1f559418e24b46339978183604051620003d892919062000f2e565b60405180910390a15050565b60006064905090565b6000806006600001805490501462000435576200041160066200053260201b60201c565b7bffffffffffffffffffffffffffffffffffffffffffffffffffffffff1662000439565b6005545b905090565b60007bffffffffffffffffffffffffffffffffffffffffffffffffffffffff8016821115620004a4576040517f08c379a00000000000000000000000000000000000000000000000000000000081526004016200049b9062000fd1565b60405180910390fd5b819050919050565b600080620004e584600001620004c843620005a860201b60201c565b620004d9866200043e60201b60201c565b620005fe60201b60201c565b817bffffffffffffffffffffffffffffffffffffffffffffffffffffffff169150807bffffffffffffffffffffffffffffffffffffffffffffffffffffffff169050915091509250929050565b60008082600001805490509050600081146200059d576200056b836000016001836200055f919062001022565b6200099f60201b60201c565b60000160049054906101000a90047bffffffffffffffffffffffffffffffffffffffffffffffffffffffff16620005a0565b60005b915050919050565b600063ffffffff8016821115620005f6576040517f08c379a0000000000000000000000000000000000000000000000000000000008152600401620005ed90620010d3565b60405180910390fd5b819050919050565b6000806000858054905090506000811115620008af57600062000636876001846200062a919062001022565b6200099f60201b60201c565b6040518060400160405290816000820160009054906101000a900463ffffffff1663ffffffff1663ffffffff1681526020016000820160049054906101000a90047bffffffffffffffffffffffffffffffffffffffffffffffffffffffff167bffffffffffffffffffffffffffffffffffffffffffffffffffffffff167bffffffffffffffffffffffffffffffffffffffffffffffffffffffff168152505090508563ffffffff16816000015163ffffffff1611156200072d576040517f08c379a0000000000000000000000000000000000000000000000000000000008152600401620007249062001145565b60405180910390fd5b8563ffffffff16816000015163ffffffff1603620007bd578462000766886001856200075a919062001022565b6200099f60201b60201c565b60000160046101000a8154817bffffffffffffffffffffffffffffffffffffffffffffffffffffffff02191690837bffffffffffffffffffffffffffffffffffffffffffffffffffffffff1602179055506200089d565b8660405180604001604052808863ffffffff168152602001877bffffffffffffffffffffffffffffffffffffffffffffffffffffffff168152509080600181540180825580915050600190039060005260206000200160009091909190915060008201518160000160006101000a81548163ffffffff021916908363ffffffff16021790555060208201518160000160046101000a8154817bffffffffffffffffffffffffffffffffffffffffffffffffffffffff02191690837bffffffffffffffffffffffffffffffffffffffffffffffffffffffff16021790555050505b80602001518593509350505062000997565b8560405180604001604052808763ffffffff168152602001867bffffffffffffffffffffffffffffffffffffffffffffffffffffffff168152509080600181540180825580915050600190039060005260206000200160009091909190915060008201518160000160006101000a81548163ffffffff021916908363ffffffff16021790555060208201518160000160046101000a8154817bffffffffffffffffffffffffffffffffffffffffffffffffffffffff02191690837bffffffffffffffffffffffffffffffffffffffffffffffffffffffff160217905550505060008492509250505b935093915050565b60008260005281602060002001905092915050565b600080fd5b600073ffffffffffffffffffffffffffffffffffffffff82169050919050565b6000620009e682620009b9565b9050919050565b6000620009fa82620009d9565b9050919050565b62000a0c81620009ed565b811462000a1857600080fd5b50565b60008151905062000a2c8162000a01565b92915050565b60006020828403121562000a4b5762000a4a620009b4565b5b600062000a5b8482850162000a1b565b91505092915050565b600081519050919050565b7f4e487b7100000000000000000000000000000000000000000000000000000000600052604160045260246000fd5b7f4e487b7100000000000000000000000000000000000000000000000000000000600052602260045260246000fd5b6000600282049050600182168062000ae657607f821691505b60208210810362000afc5762000afb62000a9e565b5b50919050565b60008190508160005260206000209050919050565b60006020601f8301049050919050565b600082821b905092915050565b60006008830262000b667fffffffffffffffffffffffffffffffffffffffffffffffffffffffffffffffff8262000b27565b62000b72868362000b27565b95508019841693508086168417925050509392505050565b6000819050919050565b6000819050919050565b600062000bbf62000bb962000bb38462000b8a565b62000b94565b62000b8a565b9050919050565b6000819050919050565b62000bdb8362000b9e565b62000bf362000bea8262000bc6565b84845462000b34565b825550505050565b600090565b62000c0a62000bfb565b62000c1781848462000bd0565b505050565b5b8181101562000c3f5762000c3360008262000c00565b60018101905062000c1d565b5050565b601f82111562000c8e5762000c588162000b02565b62000c638462000b17565b8101602085101562000c73578190505b62000c8b62000c828562000b17565b83018262000c1c565b50505b505050565b600082821c905092915050565b600062000cb36000198460080262000c93565b1980831691505092915050565b600062000cce838362000ca0565b9150826002028217905092915050565b62000ce98262000a64565b67ffffffffffffffff81111562000d055762000d0462000a6f565b5b62000d11825462000acd565b62000d1e82828562000c43565b600060209050601f83116001811462000d56576000841562000d41578287015190505b62000d4d858262000cc0565b86555062000dbd565b601f19841662000d668662000b02565b60005b8281101562000d905784890151825560018201915060208501945060208101905062000d69565b8683101562000db0578489015162000dac601f89168262000ca0565b8355505b6001600288020188555050505b505050505050565b6000819050919050565b62000dda8162000dc5565b82525050565b62000deb8162000b8a565b82525050565b62000dfc81620009d9565b82525050565b600060a08201905062000e19600083018862000dcf565b62000e28602083018762000dcf565b62000e37604083018662000dcf565b62000e46606083018562000de0565b62000e55608083018462000df1565b9695505050505050565b600082825260208201905092915050565b7f476f7665726e6f72566f74657351756f72756d4672616374696f6e3a2071756f60008201527f72756d4e756d657261746f72206f7665722071756f72756d44656e6f6d696e6160208201527f746f720000000000000000000000000000000000000000000000000000000000604082015250565b600062000ef460438362000e5f565b915062000f018262000e70565b606082019050919050565b6000602082019050818103600083015262000f278162000ee5565b9050919050565b600060408201905062000f45600083018562000de0565b62000f54602083018462000de0565b9392505050565b7f53616665436173743a2076616c756520646f65736e27742066697420696e203260008201527f3234206269747300000000000000000000000000000000000000000000000000602082015250565b600062000fb960278362000e5f565b915062000fc68262000f5b565b604082019050919050565b6000602082019050818103600083015262000fec8162000faa565b9050919050565b7f4e487b7100000000000000000000000000000000000000000000000000000000600052601160045260246000fd5b60006200102f8262000b8a565b91506200103c8362000b8a565b925082820390508181111562001057576200105662000ff3565b5b92915050565b7f53616665436173743a2076616c756520646f65736e27742066697420696e203360008201527f3220626974730000000000000000000000000000000000000000000000000000602082015250565b6000620010bb60268362000e5f565b9150620010c8826200105d565b604082019050919050565b60006020820190508181036000830152620010ee81620010ac565b9050919050565b7f436865636b706f696e743a20696e76616c6964206b6579000000000000000000600082015250565b60006200112d60178362000e5f565b91506200113a82620010f5565b602082019050919050565b6000602082019050818103600083015262001160816200111e565b9050919050565b60805160a05160c05160e05161010051610120516101405161598e620011d060003960008181611a690152818161241b0152612576015260006126d701526000612719015260006126f80152600061262d01526000612683015260006126ac015261598e6000f3fe6080604052600436106101fd5760003560e01c806360c4247f1161010d578063c01f9e37116100a0578063deaaa7cc1161006f578063deaaa7cc1461084f578063eb9019d41461087a578063f23a6e61146108b7578063f8ce560a146108f4578063fc0c546a1461093157610243565b8063c01f9e371461078e578063c28bc2fa146107cb578063c59057e4146107e7578063dd4e2ba51461082457610243565b80639a802a6d116100dc5780639a802a6d146106be578063a7713a70146106fb578063b58131b014610726578063bc197c811461075157610243565b806360c4247f146105dc5780637b3c71d3146106195780637d5e81e21461065657806397c3d3341461069357610243565b80632fe3e26111610190578063438596321161015f57806343859632146104bb578063544ffc9c146104f857806354fd4d501461053757806356781388146105625780635f398a141461059f57610243565b80632fe3e261146103eb5780633932abb1146104165780633bccf4fd146104415780633e4f49e61461047e57610243565b806306fdde03116101cc57806306fdde0314610316578063150b7a02146103415780632656227d1461037e5780632d63f693146103ae57610243565b806301ffc9a71461024857806302a251a31461028557806303420181146102b057806306f3f9e6146102ed57610243565b36610243573073ffffffffffffffffffffffffffffffffffffffff1661022161095c565b73ffffffffffffffffffffffffffffffffffffffff161461024157600080fd5b005b600080fd5b34801561025457600080fd5b5061026f600480360381019061026a919061334a565b610964565b60405161027c9190613392565b60405180910390f35b34801561029157600080fd5b5061029a610ac9565b6040516102a791906133c6565b60405180910390f35b3480156102bc57600080fd5b506102d760048036038101906102d29190613622565b610ad2565b6040516102e491906133c6565b60405180910390f35b3480156102f957600080fd5b50610314600480360381019061030f9190613700565b610bb7565b005b34801561032257600080fd5b5061032b610cae565b60405161033891906137ac565b60405180910390f35b34801561034d57600080fd5b506103686004803603810190610363919061382c565b610d40565b60405161037591906138be565b60405180910390f35b61039860048036038101906103939190613b40565b610d54565b6040516103a591906133c6565b60405180910390f35b3480156103ba57600080fd5b506103d560048036038101906103d09190613700565b610ea1565b6040516103e291906133c6565b60405180910390f35b3480156103f757600080fd5b50610400610f0f565b60405161040d9190613c0a565b60405180910390f35b34801561042257600080fd5b5061042b610f33565b60405161043891906133c6565b60405180910390f35b34801561044d57600080fd5b5061046860048036038101906104639190613c25565b610f3c565b60405161047591906133c6565b60405180910390f35b34801561048a57600080fd5b506104a560048036038101906104a09190613700565b610fc6565b6040516104b29190613d17565b60405180910390f35b3480156104c757600080fd5b506104e260048036038101906104dd9190613d32565b6110da565b6040516104ef9190613392565b60405180910390f35b34801561050457600080fd5b5061051f600480360381019061051a9190613700565b611145565b60405161052e93929190613d72565b60405180910390f35b34801561054357600080fd5b5061054c61117d565b60405161055991906137ac565b60405180910390f35b34801561056e57600080fd5b5061058960048036038101906105849190613da9565b6111ba565b60405161059691906133c6565b60405180910390f35b3480156105ab57600080fd5b506105c660048036038101906105c19190613de9565b6111eb565b6040516105d391906133c6565b60405180910390f35b3480156105e857600080fd5b5061060360048036038101906105fe9190613700565b611255565b60405161061091906133c6565b60405180910390f35b34801561062557600080fd5b50610640600480360381019061063b9190613e8d565b6113a1565b60405161064d91906133c6565b60405180910390f35b34801561066257600080fd5b5061067d60048036038101906106789190613fa2565b611409565b60405161068a91906133c6565b60405180910390f35b34801561069f57600080fd5b506106a8611710565b6040516106b591906133c6565b60405180910390f35b3480156106ca57600080fd5b506106e560048036038101906106e09190614079565b611719565b6040516106f291906133c6565b60405180910390f35b34801561070757600080fd5b5061071061172f565b60405161071d91906133c6565b60405180910390f35b34801561073257600080fd5b5061073b611776565b60405161074891906133c6565b60405180910390f35b34801561075d57600080fd5b50610778600480360381019061077391906140e8565b61177b565b60405161078591906138be565b60405180910390f35b34801561079a57600080fd5b506107b560048036038101906107b09190613700565b611790565b6040516107c291906133c6565b60405180910390f35b6107e560048036038101906107e0919061420d565b6117fe565b005b3480156107f357600080fd5b5061080e60048036038101906108099190613b40565b611987565b60405161081b91906133c6565b60405180910390f35b34801561083057600080fd5b506108396119c3565b60405161084691906137ac565b60405180910390f35b34801561085b57600080fd5b50610864611a00565b6040516108719190613c0a565b60405180910390f35b34801561088657600080fd5b506108a1600480360381019061089c9190614281565b611a24565b6040516108ae91906133c6565b60405180910390f35b3480156108c357600080fd5b506108de60048036038101906108d991906142c1565b611a40565b6040516108eb91906138be565b60405180910390f35b34801561090057600080fd5b5061091b60048036038101906109169190613700565b611a55565b60405161092891906133c6565b60405180910390f35b34801561093d57600080fd5b50610946611a67565b60405161095391906143b7565b60405180910390f35b600030905090565b6000639a802a6d60e01b630342018160e01b635f398a1460e01b7f79dd796f000000000000000000000000000000000000000000000000000000001818187bffffffffffffffffffffffffffffffffffffffffffffffffffffffff1916827bffffffffffffffffffffffffffffffffffffffffffffffffffffffff19161480610a4a57507f79dd796f000000000000000000000000000000000000000000000000000000007bffffffffffffffffffffffffffffffffffffffffffffffffffffffff1916827bffffffffffffffffffffffffffffffffffffffffffffffffffffffff1916145b80610ab257507f4e2312e0000000000000000000000000000000000000000000000000000000007bffffffffffffffffffffffffffffffffffffffffffffffffffffffff1916827bffffffffffffffffffffffffffffffffffffffffffffffffffffffff1916145b80610ac25750610ac182611a8b565b5b9050919050565b60006005905090565b600080610b55610b4d7fb3b3f3b703cd84ce352197dcff232b1b5d3cfb2025ce47cf04742d0651f1af888c8c8c8c604051610b0e929190614402565b60405180910390208b80519060200120604051602001610b3295949392919061442a565b60405160208183030381529060405280519060200120611af5565b868686611b0f565b9050610ba88a828b8b8b8080601f016020809104026020016040519081016040528093929190818152602001838380828437600081840152601f19601f820116905080830192505050505050508a611b3a565b91505098975050505050505050565b610bbf61095c565b73ffffffffffffffffffffffffffffffffffffffff16610bdd611cf6565b73ffffffffffffffffffffffffffffffffffffffff1614610c33576040517f08c379a0000000000000000000000000000000000000000000000000000000008152600401610c2a906144c9565b60405180910390fd5b3073ffffffffffffffffffffffffffffffffffffffff16610c5261095c565b73ffffffffffffffffffffffffffffffffffffffff1614610ca2576000610c77611cfe565b604051610c85929190614402565b604051809103902090505b80610c9b6002611d0b565b03610c9057505b610cab81611de7565b50565b606060008054610cbd90614518565b80601f0160208091040260200160405190810160405280929190818152602001828054610ce990614518565b8015610d365780601f10610d0b57610100808354040283529160200191610d36565b820191906000526020600020905b815481529060010190602001808311610d1957829003601f168201915b5050505050905090565b600063150b7a0260e01b9050949350505050565b600080610d6386868686611987565b90506000610d7082610fc6565b905060046007811115610d8657610d85613ca0565b5b816007811115610d9957610d98613ca0565b5b1480610dc9575060056007811115610db457610db3613ca0565b5b816007811115610dc757610dc6613ca0565b5b145b610e08576040517f08c379a0000000000000000000000000000000000000000000000000000000008152600401610dff906145bb565b60405180910390fd5b600180600084815260200190815260200160002060020160006101000a81548160ff0219169083151502179055507f712ae1383f79ac853f8d882153778e0260ef8f03b504e2866e0593e04d2b291f82604051610e6591906133c6565b60405180910390a1610e7a8288888888611f9b565b610e87828888888861207e565b610e94828888888861218d565b8192505050949350505050565b6000610efe600160008481526020019081526020016000206000016040518060200160405290816000820160009054906101000a900467ffffffffffffffff1667ffffffffffffffff1667ffffffffffffffff16815250506121e8565b67ffffffffffffffff169050919050565b7fb3b3f3b703cd84ce352197dcff232b1b5d3cfb2025ce47cf04742d0651f1af8881565b60006001905090565b600080610f9d610f957f150214d74d59b7d1e90c73fc22ef3d991dd0a76b046543d4d80ab92d2a50328f8989604051602001610f7a939291906145db565b60405160208183030381529060405280519060200120611af5565b868686611b0f565b9050610fba878288604051806020016040528060008152506121f6565b91505095945050505050565b6000806001600084815260200190815260200160002090508060020160009054906101000a900460ff1615610fff5760079150506110d5565b8060020160019054906101000a900460ff16156110205760029150506110d5565b600061102b84610ea1565b905060008103611070576040517f08c379a00000000000000000000000000000000000000000000000000000000081526004016110679061465e565b60405180910390fd5b438110611082576000925050506110d5565b600061108d85611790565b90504381106110a257600193505050506110d5565b6110ab85612216565b80156110bc57506110bb8561225d565b5b156110cd57600493505050506110d5565b600393505050505b919050565b60006004600084815260200190815260200160002060030160008373ffffffffffffffffffffffffffffffffffffffff1673ffffffffffffffffffffffffffffffffffffffff16815260200190815260200160002060009054906101000a900460ff16905092915050565b600080600080600460008681526020019081526020016000209050806000015481600101548260020154935093509350509193909250565b60606040518060400160405280600181526020017f3100000000000000000000000000000000000000000000000000000000000000815250905090565b6000806111c5611cf6565b90506111e2848285604051806020016040528060008152506121f6565b91505092915050565b6000806111f6611cf6565b905061124987828888888080601f016020809104026020016040519081016040528093929190818152602001838380828437600081840152601f19601f8201169050808301925050505050505087611b3a565b91505095945050505050565b6000806006600001805490509050600081036112765760055491505061139c565b6000600660000160018361128a91906146ad565b8154811061129b5761129a6146e1565b5b906000526020600020016040518060400160405290816000820160009054906101000a900463ffffffff1663ffffffff1663ffffffff1681526020016000820160049054906101000a90047bffffffffffffffffffffffffffffffffffffffffffffffffffffffff167bffffffffffffffffffffffffffffffffffffffffffffffffffffffff167bffffffffffffffffffffffffffffffffffffffffffffffffffffffff1681525050905083816000015163ffffffff16116113835780602001517bffffffffffffffffffffffffffffffffffffffffffffffffffffffff169250505061139c565b61139784600661228890919063ffffffff16565b925050505b919050565b6000806113ac611cf6565b90506113fe86828787878080601f016020809104026020016040519081016040528093929190818152602001838380828437600081840152601f19601f820116905080830192505050505050506121f6565b915050949350505050565b6000611413611776565b61143061141e611cf6565b60014361142b91906146ad565b611a24565b1015611471576040517f08c379a000000000000000000000000000000000000000000000000000000000815260040161146890614782565b60405180910390fd5b60006114868686868680519060200120611987565b905084518651146114cc576040517f08c379a00000000000000000000000000000000000000000000000000000000081526004016114c390614814565b60405180910390fd5b8351865114611510576040517f08c379a000000000000000000000000000000000000000000000000000000000815260040161150790614814565b60405180910390fd5b6000865111611554576040517f08c379a000000000000000000000000000000000000000000000000000000000815260040161154b90614880565b60405180910390fd5b60006001600083815260200190815260200160002090506115b4816000016040518060200160405290816000820160009054906101000a900467ffffffffffffffff1667ffffffffffffffff1667ffffffffffffffff1681525050612377565b6115f3576040517f08c379a00000000000000000000000000000000000000000000000000000000081526004016115ea90614912565b60405180910390fd5b6000611605611600610f33565b612391565b61160e43612391565b6116189190614946565b9050600061162c611627610ac9565b612391565b826116379190614946565b905061164f82846000016123e890919063ffffffff16565b61166581846001016123e890919063ffffffff16565b7f7d84a6263ae0d98d3329bd7b46bb4e8d6f98cd35a7adb45c274c8b7fd5ebd5e08461168f611cf6565b8b8b8d5167ffffffffffffffff8111156116ac576116ab6134c1565b5b6040519080825280602002602001820160405280156116df57816020015b60608152602001906001900390816116ca5790505b508c88888e6040516116f999989796959493929190614d61565b60405180910390a183945050505050949350505050565b60006064905090565b6000611726848484612417565b90509392505050565b6000806006600001805490501461176d5761174a60066124be565b7bffffffffffffffffffffffffffffffffffffffffffffffffffffffff16611771565b6005545b905090565b600090565b600063bc197c8160e01b905095945050505050565b60006117ed600160008481526020019081526020016000206001016040518060200160405290816000820160009054906101000a900467ffffffffffffffff1667ffffffffffffffff1667ffffffffffffffff16815250506121e8565b67ffffffffffffffff169050919050565b61180661095c565b73ffffffffffffffffffffffffffffffffffffffff16611824611cf6565b73ffffffffffffffffffffffffffffffffffffffff161461187a576040517f08c379a0000000000000000000000000000000000000000000000000000000008152600401611871906144c9565b60405180910390fd5b3073ffffffffffffffffffffffffffffffffffffffff1661189961095c565b73ffffffffffffffffffffffffffffffffffffffff16146118e95760006118be611cfe565b6040516118cc929190614402565b604051809103902090505b806118e26002611d0b565b036118d757505b6000808573ffffffffffffffffffffffffffffffffffffffff16858585604051611914929190614402565b60006040518083038185875af1925050503d8060008114611951576040519150601f19603f3d011682016040523d82523d6000602084013e611956565b606091505b509150915061197e828260405180606001604052806028815260200161590a60289139612528565b50505050505050565b6000848484846040516020016119a09493929190614e11565b6040516020818303038152906040528051906020012060001c9050949350505050565b60606040518060400160405280602081526020017f737570706f72743d627261766f2671756f72756d3d666f722c6162737461696e815250905090565b7f150214d74d59b7d1e90c73fc22ef3d991dd0a76b046543d4d80ab92d2a50328f81565b6000611a388383611a3361254a565b612417565b905092915050565b600063f23a6e6160e01b905095945050505050565b6000611a6082612561565b9050919050565b7f000000000000000000000000000000000000000000000000000000000000000081565b60007f01ffc9a7000000000000000000000000000000000000000000000000000000007bffffffffffffffffffffffffffffffffffffffffffffffffffffffff1916827bffffffffffffffffffffffffffffffffffffffffffffffffffffffff1916149050919050565b6000611b08611b02612629565b83612743565b9050919050565b6000806000611b2087878787612776565b91509150611b2d81612858565b8192505050949350505050565b60008060016000888152602001908152602001600020905060016007811115611b6657611b65613ca0565b5b611b6f88610fc6565b6007811115611b8157611b80613ca0565b5b14611bc1576040517f08c379a0000000000000000000000000000000000000000000000000000000008152600401611bb890614edd565b60405180910390fd5b6000611c2087611c10846000016040518060200160405290816000820160009054906101000a900467ffffffffffffffff1667ffffffffffffffff1667ffffffffffffffff16815250506121e8565b67ffffffffffffffff1686612417565b9050611c2f88888884886129be565b6000845103611c91578673ffffffffffffffffffffffffffffffffffffffff167fb8e138887d0aa13bab447e82de9d5c1777041ecd21ca36ba824ff1e6c07ddda489888489604051611c849493929190614efd565b60405180910390a2611ce8565b8673ffffffffffffffffffffffffffffffffffffffff167fe2babfbac5889a709b63bb7f598b324e08bc5a4fb9ec647fb3cbc9ec07eb87128988848989604051611cdf959493929190614f93565b60405180910390a25b809250505095945050505050565b600033905090565b3660008036915091509091565b6000611d1682612bc2565b15611d4d576040517f3db2a12a00000000000000000000000000000000000000000000000000000000815260040160405180910390fd5b60008260000160009054906101000a9004600f0b905082600101600082600f0b600f0b815260200190815260200160002054915082600101600082600f0b600f0b815260200190815260200160002060009055600181018360000160006101000a8154816fffffffffffffffffffffffffffffffff0219169083600f0b6fffffffffffffffffffffffffffffffff16021790555050919050565b611def611710565b811115611e31576040517f08c379a0000000000000000000000000000000000000000000000000000000008152600401611e289061508c565b60405180910390fd5b6000611e3b61172f565b905060008114158015611e5657506000600660000180549050145b15611f485760066000016040518060400160405280600063ffffffff168152602001611e8184612bf7565b7bffffffffffffffffffffffffffffffffffffffffffffffffffffffff168152509080600181540180825580915050600190039060005260206000200160009091909190915060008201518160000160006101000a81548163ffffffff021916908363ffffffff16021790555060208201518160000160046101000a8154817bffffffffffffffffffffffffffffffffffffffffffffffffffffffff02191690837bffffffffffffffffffffffffffffffffffffffffffffffffffffffff16021790555050505b611f5c826006612c6290919063ffffffff16565b50507f0553476bf02ef2726e8ce5ced78d63e26e602e4a2257b1f559418e24b46339978183604051611f8f9291906150ac565b60405180910390a15050565b3073ffffffffffffffffffffffffffffffffffffffff16611fba61095c565b73ffffffffffffffffffffffffffffffffffffffff16146120775760005b8451811015612075573073ffffffffffffffffffffffffffffffffffffffff1685828151811061200b5761200a6146e1565b5b602002602001015173ffffffffffffffffffffffffffffffffffffffff160361206457612063838281518110612044576120436146e1565b5b6020026020010151805190602001206002612cd090919063ffffffff16565b5b8061206e906150d5565b9050611fd8565b505b5050505050565b600060405180606001604052806027815260200161593260279139905060005b8551811015612184576000808783815181106120bd576120bc6146e1565b5b602002602001015173ffffffffffffffffffffffffffffffffffffffff168784815181106120ee576120ed6146e1565b5b6020026020010151878581518110612109576121086146e1565b5b602002602001015160405161211e919061514e565b60006040518083038185875af1925050503d806000811461215b576040519150601f19603f3d011682016040523d82523d6000602084013e612160565b606091505b5091509150612170828286612528565b5050508061217d906150d5565b905061209e565b50505050505050565b3073ffffffffffffffffffffffffffffffffffffffff166121ac61095c565b73ffffffffffffffffffffffffffffffffffffffff16146121e1576121d16002612bc2565b6121e0576121df6002612d4c565b5b5b5050505050565b600081600001519050919050565b600061220c8585858561220761254a565b611b3a565b9050949350505050565b600080600460008481526020019081526020016000209050806002015481600101546122429190615165565b61225361224e85610ea1565b611a55565b1115915050919050565b6000806004600084815260200190815260200160002090508060000154816001015411915050919050565b60004382106122cc576040517f08c379a00000000000000000000000000000000000000000000000000000000081526004016122c3906151e5565b60405180910390fd5b60006122d783612dcd565b905060008460000180549050905060006122f78660000184600085612e20565b90506000811461234b5761231a8660000160018361231591906146ad565b612e93565b60000160049054906101000a90047bffffffffffffffffffffffffffffffffffffffffffffffffffffffff1661234e565b60005b7bffffffffffffffffffffffffffffffffffffffffffffffffffffffff16935050505092915050565b600080826000015167ffffffffffffffff16149050919050565b600067ffffffffffffffff80168211156123e0576040517f08c379a00000000000000000000000000000000000000000000000000000000081526004016123d790615277565b60405180910390fd5b819050919050565b808260000160006101000a81548167ffffffffffffffff021916908367ffffffffffffffff1602179055505050565b60007f000000000000000000000000000000000000000000000000000000000000000073ffffffffffffffffffffffffffffffffffffffff16633a46b1a885856040518363ffffffff1660e01b8152600401612474929190615297565b602060405180830381865afa158015612491573d6000803e3d6000fd5b505050506040513d601f19601f820116820180604052508101906124b591906152d5565b90509392505050565b600080826000018054905090506000811461251d576124ec836000016001836124e791906146ad565b612e93565b60000160049054906101000a90047bffffffffffffffffffffffffffffffffffffffffffffffffffffffff16612520565b60005b915050919050565b6060831561253857829050612543565b6125428383612ea8565b5b9392505050565b606060405180602001604052806000815250905090565b600061256b611710565b61257483611255565b7f000000000000000000000000000000000000000000000000000000000000000073ffffffffffffffffffffffffffffffffffffffff16638e539e8c856040518263ffffffff1660e01b81526004016125cd91906133c6565b602060405180830381865afa1580156125ea573d6000803e3d6000fd5b505050506040513d601f19601f8201168201806040525081019061260e91906152d5565b6126189190615302565b6126229190615373565b9050919050565b60007f000000000000000000000000000000000000000000000000000000000000000073ffffffffffffffffffffffffffffffffffffffff163073ffffffffffffffffffffffffffffffffffffffff161480156126a557507f000000000000000000000000000000000000000000000000000000000000000046145b156126d2577f00000000000000000000000000000000000000000000000000000000000000009050612740565b61273d7f00000000000000000000000000000000000000000000000000000000000000007f00000000000000000000000000000000000000000000000000000000000000007f0000000000000000000000000000000000000000000000000000000000000000612ef8565b90505b90565b6000828260405160200161275892919061541c565b60405160208183030381529060405280519060200120905092915050565b6000807f7fffffffffffffffffffffffffffffff5d576e7357a4501ddfe92f46681b20a08360001c11156127b157600060039150915061284f565b6000600187878787604051600081526020016040526040516127d69493929190615453565b6020604051602081039080840390855afa1580156127f8573d6000803e3d6000fd5b505050602060405103519050600073ffffffffffffffffffffffffffffffffffffffff168173ffffffffffffffffffffffffffffffffffffffff16036128465760006001925092505061284f565b80600092509250505b94509492505050565b6000600481111561286c5761286b613ca0565b5b81600481111561287f5761287e613ca0565b5b03156129bb576001600481111561289957612898613ca0565b5b8160048111156128ac576128ab613ca0565b5b036128ec576040517f08c379a00000000000000000000000000000000000000000000000000000000081526004016128e3906154e4565b60405180910390fd5b60026004811115612900576128ff613ca0565b5b81600481111561291357612912613ca0565b5b03612953576040517f08c379a000000000000000000000000000000000000000000000000000000000815260040161294a90615550565b60405180910390fd5b6003600481111561296757612966613ca0565b5b81600481111561297a57612979613ca0565b5b036129ba576040517f08c379a00000000000000000000000000000000000000000000000000000000081526004016129b1906155e2565b60405180910390fd5b5b50565b60006004600087815260200190815260200160002090508060030160008673ffffffffffffffffffffffffffffffffffffffff1673ffffffffffffffffffffffffffffffffffffffff16815260200190815260200160002060009054906101000a900460ff1615612a64576040517f08c379a0000000000000000000000000000000000000000000000000000000008152600401612a5b90615674565b60405180910390fd5b60018160030160008773ffffffffffffffffffffffffffffffffffffffff1673ffffffffffffffffffffffffffffffffffffffff16815260200190815260200160002060006101000a81548160ff02191690831515021790555060006002811115612ad257612ad1613ca0565b5b60ff168460ff1603612afe5782816000016000828254612af29190615165565b92505081905550612bba565b60016002811115612b1257612b11613ca0565b5b60ff168460ff1603612b3e5782816001016000828254612b329190615165565b92505081905550612bb9565b600280811115612b5157612b50613ca0565b5b60ff168460ff1603612b7d5782816002016000828254612b719190615165565b92505081905550612bb8565b6040517f08c379a0000000000000000000000000000000000000000000000000000000008152600401612baf90615706565b60405180910390fd5b5b5b505050505050565b60008160000160009054906101000a9004600f0b600f0b8260000160109054906101000a9004600f0b600f0b13159050919050565b60007bffffffffffffffffffffffffffffffffffffffffffffffffffffffff8016821115612c5a576040517f08c379a0000000000000000000000000000000000000000000000000000000008152600401612c5190615798565b60405180910390fd5b819050919050565b600080612c8384600001612c7543612dcd565b612c7e86612bf7565b612f32565b817bffffffffffffffffffffffffffffffffffffffffffffffffffffffff169150807bffffffffffffffffffffffffffffffffffffffffffffffffffffffff169050915091509250929050565b60008260000160109054906101000a9004600f0b90508183600101600083600f0b600f0b815260200190815260200160002081905550600181018360000160106101000a8154816fffffffffffffffffffffffffffffffff0219169083600f0b6fffffffffffffffffffffffffffffffff160217905550505050565b60008160000160006101000a8154816fffffffffffffffffffffffffffffffff0219169083600f0b6fffffffffffffffffffffffffffffffff16021790555060008160000160106101000a8154816fffffffffffffffffffffffffffffffff0219169083600f0b6fffffffffffffffffffffffffffffffff16021790555050565b600063ffffffff8016821115612e18576040517f08c379a0000000000000000000000000000000000000000000000000000000008152600401612e0f9061582a565b60405180910390fd5b819050919050565b60005b81831015612e88576000612e3784846132b8565b90508463ffffffff16612e4a8783612e93565b60000160009054906101000a900463ffffffff1663ffffffff161115612e7257809250612e82565b600181612e7f9190615165565b93505b50612e23565b819050949350505050565b60008260005281602060002001905092915050565b600082511115612ebb5781518083602001fd5b806040517f08c379a0000000000000000000000000000000000000000000000000000000008152600401612eef91906137ac565b60405180910390fd5b60008383834630604051602001612f1395949392919061584a565b6040516020818303038152906040528051906020012090509392505050565b60008060008580549050905060008111156131c8576000612f5f87600184612f5a91906146ad565b612e93565b6040518060400160405290816000820160009054906101000a900463ffffffff1663ffffffff1663ffffffff1681526020016000820160049054906101000a90047bffffffffffffffffffffffffffffffffffffffffffffffffffffffff167bffffffffffffffffffffffffffffffffffffffffffffffffffffffff167bffffffffffffffffffffffffffffffffffffffffffffffffffffffff168152505090508563ffffffff16816000015163ffffffff161115613053576040517f08c379a000000000000000000000000000000000000000000000000000000000815260040161304a906158e9565b60405180910390fd5b8563ffffffff16816000015163ffffffff16036130d757846130818860018561307c91906146ad565b612e93565b60000160046101000a8154817bffffffffffffffffffffffffffffffffffffffffffffffffffffffff02191690837bffffffffffffffffffffffffffffffffffffffffffffffffffffffff1602179055506131b7565b8660405180604001604052808863ffffffff168152602001877bffffffffffffffffffffffffffffffffffffffffffffffffffffffff168152509080600181540180825580915050600190039060005260206000200160009091909190915060008201518160000160006101000a81548163ffffffff021916908363ffffffff16021790555060208201518160000160046101000a8154817bffffffffffffffffffffffffffffffffffffffffffffffffffffffff02191690837bffffffffffffffffffffffffffffffffffffffffffffffffffffffff16021790555050505b8060200151859350935050506132b0565b8560405180604001604052808763ffffffff168152602001867bffffffffffffffffffffffffffffffffffffffffffffffffffffffff168152509080600181540180825580915050600190039060005260206000200160009091909190915060008201518160000160006101000a81548163ffffffff021916908363ffffffff16021790555060208201518160000160046101000a8154817bffffffffffffffffffffffffffffffffffffffffffffffffffffffff02191690837bffffffffffffffffffffffffffffffffffffffffffffffffffffffff160217905550505060008492509250505b935093915050565b600060028284186132c99190615373565b8284166132d69190615165565b905092915050565b6000604051905090565b600080fd5b600080fd5b60007fffffffff0000000000000000000000000000000000000000000000000000000082169050919050565b613327816132f2565b811461333257600080fd5b50565b6000813590506133448161331e565b92915050565b6000602082840312156133605761335f6132e8565b5b600061336e84828501613335565b91505092915050565b60008115159050919050565b61338c81613377565b82525050565b60006020820190506133a76000830184613383565b92915050565b6000819050919050565b6133c0816133ad565b82525050565b60006020820190506133db60008301846133b7565b92915050565b6133ea816133ad565b81146133f557600080fd5b50565b600081359050613407816133e1565b92915050565b600060ff82169050919050565b6134238161340d565b811461342e57600080fd5b50565b6000813590506134408161341a565b92915050565b600080fd5b600080fd5b600080fd5b60008083601f84011261346b5761346a613446565b5b8235905067ffffffffffffffff8111156134885761348761344b565b5b6020830191508360018202830111156134a4576134a3613450565b5b9250929050565b600080fd5b6000601f19601f8301169050919050565b7f4e487b7100000000000000000000000000000000000000000000000000000000600052604160045260246000fd5b6134f9826134b0565b810181811067ffffffffffffffff82111715613518576135176134c1565b5b80604052505050565b600061352b6132de565b905061353782826134f0565b919050565b600067ffffffffffffffff821115613557576135566134c1565b5b613560826134b0565b9050602081019050919050565b82818337600083830152505050565b600061358f61358a8461353c565b613521565b9050828152602081018484840111156135ab576135aa6134ab565b5b6135b684828561356d565b509392505050565b600082601f8301126135d3576135d2613446565b5b81356135e384826020860161357c565b91505092915050565b6000819050919050565b6135ff816135ec565b811461360a57600080fd5b50565b60008135905061361c816135f6565b92915050565b60008060008060008060008060e0898b031215613642576136416132e8565b5b60006136508b828c016133f8565b98505060206136618b828c01613431565b975050604089013567ffffffffffffffff811115613682576136816132ed565b5b61368e8b828c01613455565b9650965050606089013567ffffffffffffffff8111156136b1576136b06132ed565b5b6136bd8b828c016135be565b94505060806136ce8b828c01613431565b93505060a06136df8b828c0161360d565b92505060c06136f08b828c0161360d565b9150509295985092959890939650565b600060208284031215613716576137156132e8565b5b6000613724848285016133f8565b91505092915050565b600081519050919050565b600082825260208201905092915050565b60005b8381101561376757808201518184015260208101905061374c565b60008484015250505050565b600061377e8261372d565b6137888185613738565b9350613798818560208601613749565b6137a1816134b0565b840191505092915050565b600060208201905081810360008301526137c68184613773565b905092915050565b600073ffffffffffffffffffffffffffffffffffffffff82169050919050565b60006137f9826137ce565b9050919050565b613809816137ee565b811461381457600080fd5b50565b60008135905061382681613800565b92915050565b60008060008060808587031215613846576138456132e8565b5b600061385487828801613817565b945050602061386587828801613817565b9350506040613876878288016133f8565b925050606085013567ffffffffffffffff811115613897576138966132ed565b5b6138a3878288016135be565b91505092959194509250565b6138b8816132f2565b82525050565b60006020820190506138d360008301846138af565b92915050565b600067ffffffffffffffff8211156138f4576138f36134c1565b5b602082029050602081019050919050565b6000613918613913846138d9565b613521565b9050808382526020820190506020840283018581111561393b5761393a613450565b5b835b8181101561396457806139508882613817565b84526020840193505060208101905061393d565b5050509392505050565b600082601f83011261398357613982613446565b5b8135613993848260208601613905565b91505092915050565b600067ffffffffffffffff8211156139b7576139b66134c1565b5b602082029050602081019050919050565b60006139db6139d68461399c565b613521565b905080838252602082019050602084028301858111156139fe576139fd613450565b5b835b81811015613a275780613a1388826133f8565b845260208401935050602081019050613a00565b5050509392505050565b600082601f830112613a4657613a45613446565b5b8135613a568482602086016139c8565b91505092915050565b600067ffffffffffffffff821115613a7a57613a796134c1565b5b602082029050602081019050919050565b6000613a9e613a9984613a5f565b613521565b90508083825260208201905060208402830185811115613ac157613ac0613450565b5b835b81811015613b0857803567ffffffffffffffff811115613ae657613ae5613446565b5b808601613af389826135be565b85526020850194505050602081019050613ac3565b5050509392505050565b600082601f830112613b2757613b26613446565b5b8135613b37848260208601613a8b565b91505092915050565b60008060008060808587031215613b5a57613b596132e8565b5b600085013567ffffffffffffffff811115613b7857613b776132ed565b5b613b848782880161396e565b945050602085013567ffffffffffffffff811115613ba557613ba46132ed565b5b613bb187828801613a31565b935050604085013567ffffffffffffffff811115613bd257613bd16132ed565b5b613bde87828801613b12565b9250506060613bef8782880161360d565b91505092959194509250565b613c04816135ec565b82525050565b6000602082019050613c1f6000830184613bfb565b92915050565b600080600080600060a08688031215613c4157613c406132e8565b5b6000613c4f888289016133f8565b9550506020613c6088828901613431565b9450506040613c7188828901613431565b9350506060613c828882890161360d565b9250506080613c938882890161360d565b9150509295509295909350565b7f4e487b7100000000000000000000000000000000000000000000000000000000600052602160045260246000fd5b60088110613ce057613cdf613ca0565b5b50565b6000819050613cf182613ccf565b919050565b6000613d0182613ce3565b9050919050565b613d1181613cf6565b82525050565b6000602082019050613d2c6000830184613d08565b92915050565b60008060408385031215613d4957613d486132e8565b5b6000613d57858286016133f8565b9250506020613d6885828601613817565b9150509250929050565b6000606082019050613d8760008301866133b7565b613d9460208301856133b7565b613da160408301846133b7565b949350505050565b60008060408385031215613dc057613dbf6132e8565b5b6000613dce858286016133f8565b9250506020613ddf85828601613431565b9150509250929050565b600080600080600060808688031215613e0557613e046132e8565b5b6000613e13888289016133f8565b9550506020613e2488828901613431565b945050604086013567ffffffffffffffff811115613e4557613e446132ed565b5b613e5188828901613455565b9350935050606086013567ffffffffffffffff811115613e7457613e736132ed565b5b613e80888289016135be565b9150509295509295909350565b60008060008060608587031215613ea757613ea66132e8565b5b6000613eb5878288016133f8565b9450506020613ec687828801613431565b935050604085013567ffffffffffffffff811115613ee757613ee66132ed565b5b613ef387828801613455565b925092505092959194509250565b600067ffffffffffffffff821115613f1c57613f1b6134c1565b5b613f25826134b0565b9050602081019050919050565b6000613f45613f4084613f01565b613521565b905082815260208101848484011115613f6157613f606134ab565b5b613f6c84828561356d565b509392505050565b600082601f830112613f8957613f88613446565b5b8135613f99848260208601613f32565b91505092915050565b60008060008060808587031215613fbc57613fbb6132e8565b5b600085013567ffffffffffffffff811115613fda57613fd96132ed565b5b613fe68782880161396e565b945050602085013567ffffffffffffffff811115614007576140066132ed565b5b61401387828801613a31565b935050604085013567ffffffffffffffff811115614034576140336132ed565b5b61404087828801613b12565b925050606085013567ffffffffffffffff811115614061576140606132ed565b5b61406d87828801613f74565b91505092959194509250565b600080600060608486031215614092576140916132e8565b5b60006140a086828701613817565b93505060206140b1868287016133f8565b925050604084013567ffffffffffffffff8111156140d2576140d16132ed565b5b6140de868287016135be565b9150509250925092565b600080600080600060a08688031215614104576141036132e8565b5b600061411288828901613817565b955050602061412388828901613817565b945050604086013567ffffffffffffffff811115614144576141436132ed565b5b61415088828901613a31565b935050606086013567ffffffffffffffff811115614171576141706132ed565b5b61417d88828901613a31565b925050608086013567ffffffffffffffff81111561419e5761419d6132ed565b5b6141aa888289016135be565b9150509295509295909350565b60008083601f8401126141cd576141cc613446565b5b8235905067ffffffffffffffff8111156141ea576141e961344b565b5b60208301915083600182028301111561420657614205613450565b5b9250929050565b60008060008060608587031215614227576142266132e8565b5b600061423587828801613817565b9450506020614246878288016133f8565b935050604085013567ffffffffffffffff811115614267576142666132ed565b5b614273878288016141b7565b925092505092959194509250565b60008060408385031215614298576142976132e8565b5b60006142a685828601613817565b92505060206142b7858286016133f8565b9150509250929050565b600080600080600060a086880312156142dd576142dc6132e8565b5b60006142eb88828901613817565b95505060206142fc88828901613817565b945050604061430d888289016133f8565b935050606061431e888289016133f8565b925050608086013567ffffffffffffffff81111561433f5761433e6132ed565b5b61434b888289016135be565b9150509295509295909350565b6000819050919050565b600061437d614378614373846137ce565b614358565b6137ce565b9050919050565b600061438f82614362565b9050919050565b60006143a182614384565b9050919050565b6143b181614396565b82525050565b60006020820190506143cc60008301846143a8565b92915050565b600081905092915050565b60006143e983856143d2565b93506143f683858461356d565b82840190509392505050565b600061440f8284866143dd565b91508190509392505050565b6144248161340d565b82525050565b600060a08201905061443f6000830188613bfb565b61444c60208301876133b7565b614459604083018661441b565b6144666060830185613bfb565b6144736080830184613bfb565b9695505050505050565b7f476f7665726e6f723a206f6e6c79476f7665726e616e63650000000000000000600082015250565b60006144b3601883613738565b91506144be8261447d565b602082019050919050565b600060208201905081810360008301526144e2816144a6565b9050919050565b7f4e487b7100000000000000000000000000000000000000000000000000000000600052602260045260246000fd5b6000600282049050600182168061453057607f821691505b602082108103614543576145426144e9565b5b50919050565b7f476f7665726e6f723a2070726f706f73616c206e6f742073756363657373667560008201527f6c00000000000000000000000000000000000000000000000000000000000000602082015250565b60006145a5602183613738565b91506145b082614549565b604082019050919050565b600060208201905081810360008301526145d481614598565b9050919050565b60006060820190506145f06000830186613bfb565b6145fd60208301856133b7565b61460a604083018461441b565b949350505050565b7f476f7665726e6f723a20756e6b6e6f776e2070726f706f73616c206964000000600082015250565b6000614648601d83613738565b915061465382614612565b602082019050919050565b600060208201905081810360008301526146778161463b565b9050919050565b7f4e487b7100000000000000000000000000000000000000000000000000000000600052601160045260246000fd5b60006146b8826133ad565b91506146c3836133ad565b92508282039050818111156146db576146da61467e565b5b92915050565b7f4e487b7100000000000000000000000000000000000000000000000000000000600052603260045260246000fd5b7f476f7665726e6f723a2070726f706f73657220766f7465732062656c6f77207060008201527f726f706f73616c207468726573686f6c64000000000000000000000000000000602082015250565b600061476c603183613738565b915061477782614710565b604082019050919050565b6000602082019050818103600083015261479b8161475f565b9050919050565b7f476f7665726e6f723a20696e76616c69642070726f706f73616c206c656e677460008201527f6800000000000000000000000000000000000000000000000000000000000000602082015250565b60006147fe602183613738565b9150614809826147a2565b604082019050919050565b6000602082019050818103600083015261482d816147f1565b9050919050565b7f476f7665726e6f723a20656d7074792070726f706f73616c0000000000000000600082015250565b600061486a601883613738565b915061487582614834565b602082019050919050565b600060208201905081810360008301526148998161485d565b9050919050565b7f476f7665726e6f723a2070726f706f73616c20616c726561647920657869737460008201527f7300000000000000000000000000000000000000000000000000000000000000602082015250565b60006148fc602183613738565b9150614907826148a0565b604082019050919050565b6000602082019050818103600083015261492b816148ef565b9050919050565b600067ffffffffffffffff82169050919050565b600061495182614932565b915061495c83614932565b9250828201905067ffffffffffffffff81111561497c5761497b61467e565b5b92915050565b61498b816137ee565b82525050565b600081519050919050565b600082825260208201905092915050565b6000819050602082019050919050565b6149c6816137ee565b82525050565b60006149d883836149bd565b60208301905092915050565b6000602082019050919050565b60006149fc82614991565b614a06818561499c565b9350614a11836149ad565b8060005b83811015614a42578151614a2988826149cc565b9750614a34836149e4565b925050600181019050614a15565b5085935050505092915050565b600081519050919050565b600082825260208201905092915050565b6000819050602082019050919050565b614a84816133ad565b82525050565b6000614a968383614a7b565b60208301905092915050565b6000602082019050919050565b6000614aba82614a4f565b614ac48185614a5a565b9350614acf83614a6b565b8060005b83811015614b00578151614ae78882614a8a565b9750614af283614aa2565b925050600181019050614ad3565b5085935050505092915050565b600081519050919050565b600082825260208201905092915050565b6000819050602082019050919050565b600082825260208201905092915050565b6000614b558261372d565b614b5f8185614b39565b9350614b6f818560208601613749565b614b78816134b0565b840191505092915050565b6000614b8f8383614b4a565b905092915050565b6000602082019050919050565b6000614baf82614b0d565b614bb98185614b18565b935083602082028501614bcb85614b29565b8060005b85811015614c075784840389528151614be88582614b83565b9450614bf383614b97565b925060208a01995050600181019050614bcf565b50829750879550505050505092915050565b600081519050919050565b600082825260208201905092915050565b6000819050602082019050919050565b600081519050919050565b600082825260208201905092915050565b6000614c6c82614c45565b614c768185614c50565b9350614c86818560208601613749565b614c8f816134b0565b840191505092915050565b6000614ca68383614c61565b905092915050565b6000602082019050919050565b6000614cc682614c19565b614cd08185614c24565b935083602082028501614ce285614c35565b8060005b85811015614d1e5784840389528151614cff8582614c9a565b9450614d0a83614cae565b925060208a01995050600181019050614ce6565b50829750879550505050505092915050565b6000614d4b614d46614d4184614932565b614358565b6133ad565b9050919050565b614d5b81614d30565b82525050565b600061012082019050614d77600083018c6133b7565b614d84602083018b614982565b8181036040830152614d96818a6149f1565b90508181036060830152614daa8189614aaf565b90508181036080830152614dbe8188614ba4565b905081810360a0830152614dd28187614cbb565b9050614de160c0830186614d52565b614dee60e0830185614d52565b818103610100830152614e018184613773565b90509a9950505050505050505050565b60006080820190508181036000830152614e2b81876149f1565b90508181036020830152614e3f8186614aaf565b90508181036040830152614e538185614cbb565b9050614e626060830184613bfb565b95945050505050565b7f476f7665726e6f723a20766f7465206e6f742063757272656e746c792061637460008201527f6976650000000000000000000000000000000000000000000000000000000000602082015250565b6000614ec7602383613738565b9150614ed282614e6b565b604082019050919050565b60006020820190508181036000830152614ef681614eba565b9050919050565b6000608082019050614f1260008301876133b7565b614f1f602083018661441b565b614f2c60408301856133b7565b8181036060830152614f3e8184613773565b905095945050505050565b600082825260208201905092915050565b6000614f6582614c45565b614f6f8185614f49565b9350614f7f818560208601613749565b614f88816134b0565b840191505092915050565b600060a082019050614fa860008301886133b7565b614fb5602083018761441b565b614fc260408301866133b7565b8181036060830152614fd48185613773565b90508181036080830152614fe88184614f5a565b90509695505050505050565b7f476f7665726e6f72566f74657351756f72756d4672616374696f6e3a2071756f60008201527f72756d4e756d657261746f72206f7665722071756f72756d44656e6f6d696e6160208201527f746f720000000000000000000000000000000000000000000000000000000000604082015250565b6000615076604383613738565b915061508182614ff4565b606082019050919050565b600060208201905081810360008301526150a581615069565b9050919050565b60006040820190506150c160008301856133b7565b6150ce60208301846133b7565b9392505050565b60006150e0826133ad565b91507fffffffffffffffffffffffffffffffffffffffffffffffffffffffffffffffff82036151125761511161467e565b5b600182019050919050565b600061512882614c45565b61513281856143d2565b9350615142818560208601613749565b80840191505092915050565b600061515a828461511d565b915081905092915050565b6000615170826133ad565b915061517b836133ad565b92508282019050808211156151935761519261467e565b5b92915050565b7f436865636b706f696e74733a20626c6f636b206e6f7420796574206d696e6564600082015250565b60006151cf602083613738565b91506151da82615199565b602082019050919050565b600060208201905081810360008301526151fe816151c2565b9050919050565b7f53616665436173743a2076616c756520646f65736e27742066697420696e203660008201527f3420626974730000000000000000000000000000000000000000000000000000602082015250565b6000615261602683613738565b915061526c82615205565b604082019050919050565b6000602082019050818103600083015261529081615254565b9050919050565b60006040820190506152ac6000830185614982565b6152b960208301846133b7565b9392505050565b6000815190506152cf816133e1565b92915050565b6000602082840312156152eb576152ea6132e8565b5b60006152f9848285016152c0565b91505092915050565b600061530d826133ad565b9150615318836133ad565b9250828202615326816133ad565b9150828204841483151761533d5761533c61467e565b5b5092915050565b7f4e487b7100000000000000000000000000000000000000000000000000000000600052601260045260246000fd5b600061537e826133ad565b9150615389836133ad565b92508261539957615398615344565b5b828204905092915050565b600081905092915050565b7f1901000000000000000000000000000000000000000000000000000000000000600082015250565b60006153e56002836153a4565b91506153f0826153af565b600282019050919050565b6000819050919050565b615416615411826135ec565b6153fb565b82525050565b6000615427826153d8565b91506154338285615405565b6020820191506154438284615405565b6020820191508190509392505050565b60006080820190506154686000830187613bfb565b615475602083018661441b565b6154826040830185613bfb565b61548f6060830184613bfb565b95945050505050565b7f45434453413a20696e76616c6964207369676e61747572650000000000000000600082015250565b60006154ce601883613738565b91506154d982615498565b602082019050919050565b600060208201905081810360008301526154fd816154c1565b9050919050565b7f45434453413a20696e76616c6964207369676e6174757265206c656e67746800600082015250565b600061553a601f83613738565b915061554582615504565b602082019050919050565b600060208201905081810360008301526155698161552d565b9050919050565b7f45434453413a20696e76616c6964207369676e6174757265202773272076616c60008201527f7565000000000000000000000000000000000000000000000000000000000000602082015250565b60006155cc602283613738565b91506155d782615570565b604082019050919050565b600060208201905081810360008301526155fb816155bf565b9050919050565b7f476f7665726e6f72566f74696e6753696d706c653a20766f746520616c72656160008201527f6479206361737400000000000000000000000000000000000000000000000000602082015250565b600061565e602783613738565b915061566982615602565b604082019050919050565b6000602082019050818103600083015261568d81615651565b9050919050565b7f476f7665726e6f72566f74696e6753696d706c653a20696e76616c696420766160008201527f6c756520666f7220656e756d20566f7465547970650000000000000000000000602082015250565b60006156f0603583613738565b91506156fb82615694565b604082019050919050565b6000602082019050818103600083015261571f816156e3565b9050919050565b7f53616665436173743a2076616c756520646f65736e27742066697420696e203260008201527f3234206269747300000000000000000000000000000000000000000000000000602082015250565b6000615782602783613738565b915061578d82615726565b604082019050919050565b600060208201905081810360008301526157b181615775565b9050919050565b7f53616665436173743a2076616c756520646f65736e27742066697420696e203360008201527f3220626974730000000000000000000000000000000000000000000000000000602082015250565b6000615814602683613738565b915061581f826157b8565b604082019050919050565b6000602082019050818103600083015261584381615807565b9050919050565b600060a08201905061585f6000830188613bfb565b61586c6020830187613bfb565b6158796040830186613bfb565b61588660608301856133b7565b6158936080830184614982565b9695505050505050565b7f436865636b706f696e743a20696e76616c6964206b6579000000000000000000600082015250565b60006158d3601783613738565b91506158de8261589d565b602082019050919050565b60006020820190508181036000830152615902816158c6565b905091905056fe476f7665726e6f723a2072656c617920726576657274656420776974686f7574206d657373616765476f7665726e6f723a2063616c6c20726576657274656420776974686f7574206d657373616765a26469706673582212206501d9c4f3668402eefa78730e9a2eaea1f0e0a6f882cd1143d6a2e635a991d264736f6c63430008130033",
  "immutableReferences": {
    "1953": [
      {
        "length": 32,
        "start": 6761
      },
      {
        "length": 32,
        "start": 9243
      },
      {
        "length": 32,
        "start": 9590
      }
    ],
    "6474": [
      {
        "length": 32,
        "start": 9900
      }
    ],
    "6476": [
      {
        "length": 32,
        "start": 9859
      }
    ],
    "6478": [
      {
        "length": 32,
        "start": 9773
      }
    ],
    "6480": [
      {
        "length": 32,
        "start": 9976
      }
    ],
    "6482": [
      {
        "length": 32,
        "start": 10009
      }
    ],
    "6484": [
      {
        "length": 32,
        "start": 9943
      }
    ]
  },
  "source": "// SPDX-License-Identifier: MIT\npragma solidity ^0.8.9;\n\nimport \"@openzeppelin/contracts/governance/Governor.sol\";\nimport \"@openzeppelin/contracts/governance/extensions/GovernorCountingSimple.sol\";\nimport \"@openzeppelin/contracts/governance/extensions/GovernorVotes.sol\";\nimport \"@openzeppelin/contracts/governance/extensions/GovernorVotesQuorumFraction.sol\";\n\ncontract DAOGovernor is Governor,\n         GovernorCountingSimple,\n         GovernorVotes,\n         GovernorVotesQuorumFraction {\n\n    constructor (IVotes _token)\n        Governor(\"DaoGovernor\")\n        GovernorVotes(_token)\n        GovernorVotesQuorumFraction(4)\n    {}\n\n    function votingDelay() public pure override returns (uint256) {\n        return 1; //1 block\n    }\n\n    function votingPeriod() public pure override returns (uint256) {\n        return 5; //5 blocks or around 1 minute\n    }\n\n    // The following functions are overrides required by Solidity\n    function quorum(uint256 blockNumber)\n        public\n        view\n        override(IGovernor, GovernorVotesQuorumFraction)\n        returns (uint256)\n        {\n            return super.quorum(blockNumber);\n        }\n}\n",
  "sourcePath": "/home/alonso/truffle-dao/contracts/DAOGovernor.sol",
  "compiler": {
    "name": "solc",
    "version": "0.8.19+commit.7dd6d404.Emscripten.clang"
  },
  "schemaVersion": "3.4.13",
  "updatedAt": "2023-03-24T14:53:16.756Z",
  "devdoc": {
    "errors": {
      "Empty()": [
        {
          "details": "An operation (e.g. {front}) couldn't be completed due to the queue being empty."
        }
      ]
    },
    "events": {
      "ProposalCanceled(uint256)": {
        "details": "Emitted when a proposal is canceled."
      },
      "ProposalCreated(uint256,address,address[],uint256[],string[],bytes[],uint256,uint256,string)": {
        "details": "Emitted when a proposal is created."
      },
      "ProposalExecuted(uint256)": {
        "details": "Emitted when a proposal is executed."
      },
      "VoteCast(address,uint256,uint8,uint256,string)": {
        "details": "Emitted when a vote is cast without params. Note: `support` values should be seen as buckets. Their interpretation depends on the voting module used."
      },
      "VoteCastWithParams(address,uint256,uint8,uint256,string,bytes)": {
        "details": "Emitted when a vote is cast with params. Note: `support` values should be seen as buckets. Their interpretation depends on the voting module used. `params` are additional encoded parameters. Their intepepretation also depends on the voting module used."
      }
    },
    "kind": "dev",
    "methods": {
      "COUNTING_MODE()": {
        "details": "See {IGovernor-COUNTING_MODE}."
      },
      "castVote(uint256,uint8)": {
        "details": "See {IGovernor-castVote}."
      },
      "castVoteBySig(uint256,uint8,uint8,bytes32,bytes32)": {
        "details": "See {IGovernor-castVoteBySig}."
      },
      "castVoteWithReason(uint256,uint8,string)": {
        "details": "See {IGovernor-castVoteWithReason}."
      },
      "castVoteWithReasonAndParams(uint256,uint8,string,bytes)": {
        "details": "See {IGovernor-castVoteWithReasonAndParams}."
      },
      "castVoteWithReasonAndParamsBySig(uint256,uint8,string,bytes,uint8,bytes32,bytes32)": {
        "details": "See {IGovernor-castVoteWithReasonAndParamsBySig}."
      },
      "execute(address[],uint256[],bytes[],bytes32)": {
        "details": "See {IGovernor-execute}."
      },
      "getVotes(address,uint256)": {
        "details": "See {IGovernor-getVotes}."
      },
      "getVotesWithParams(address,uint256,bytes)": {
        "details": "See {IGovernor-getVotesWithParams}."
      },
      "hasVoted(uint256,address)": {
        "details": "See {IGovernor-hasVoted}."
      },
      "hashProposal(address[],uint256[],bytes[],bytes32)": {
        "details": "See {IGovernor-hashProposal}. The proposal id is produced by hashing the ABI encoded `targets` array, the `values` array, the `calldatas` array and the descriptionHash (bytes32 which itself is the keccak256 hash of the description string). This proposal id can be produced from the proposal data which is part of the {ProposalCreated} event. It can even be computed in advance, before the proposal is submitted. Note that the chainId and the governor address are not part of the proposal id computation. Consequently, the same proposal (with same operation and same description) will have the same id if submitted on multiple governors across multiple networks. This also means that in order to execute the same operation twice (on the same governor) the proposer will have to change the description in order to avoid proposal id conflicts."
      },
      "name()": {
        "details": "See {IGovernor-name}."
      },
      "onERC1155BatchReceived(address,address,uint256[],uint256[],bytes)": {
        "details": "See {IERC1155Receiver-onERC1155BatchReceived}."
      },
      "onERC1155Received(address,address,uint256,uint256,bytes)": {
        "details": "See {IERC1155Receiver-onERC1155Received}."
      },
      "onERC721Received(address,address,uint256,bytes)": {
        "details": "See {IERC721Receiver-onERC721Received}."
      },
      "proposalDeadline(uint256)": {
        "details": "See {IGovernor-proposalDeadline}."
      },
      "proposalSnapshot(uint256)": {
        "details": "See {IGovernor-proposalSnapshot}."
      },
      "proposalThreshold()": {
        "details": "Part of the Governor Bravo's interface: _\"The number of votes required in order for a voter to become a proposer\"_."
      },
      "proposalVotes(uint256)": {
        "details": "Accessor to the internal vote counts."
      },
      "propose(address[],uint256[],bytes[],string)": {
        "details": "See {IGovernor-propose}."
      },
      "quorumDenominator()": {
        "details": "Returns the quorum denominator. Defaults to 100, but may be overridden."
      },
      "quorumNumerator()": {
        "details": "Returns the current quorum numerator. See {quorumDenominator}."
      },
      "quorumNumerator(uint256)": {
        "details": "Returns the quorum numerator at a specific block number. See {quorumDenominator}."
      },
      "relay(address,uint256,bytes)": {
        "details": "Relays a transaction or function call to an arbitrary target. In cases where the governance executor is some contract other than the governor itself, like when using a timelock, this function can be invoked in a governance proposal to recover tokens or Ether that was sent to the governor contract by mistake. Note that if the executor is simply the governor itself, use of `relay` is redundant."
      },
      "state(uint256)": {
        "details": "See {IGovernor-state}."
      },
      "supportsInterface(bytes4)": {
        "details": "See {IERC165-supportsInterface}."
      },
      "updateQuorumNumerator(uint256)": {
        "details": "Changes the quorum numerator. Emits a {QuorumNumeratorUpdated} event. Requirements: - Must be called through a governance proposal. - New numerator must be smaller or equal to the denominator."
      },
      "version()": {
        "details": "See {IGovernor-version}."
      },
      "votingDelay()": {
        "details": "Delay, in number of block, between the proposal is created and the vote starts. This can be increassed to leave time for users to buy voting power, or delegate it, before the voting of a proposal starts."
      },
      "votingPeriod()": {
        "details": "Delay, in number of blocks, between the vote start and vote ends. NOTE: The {votingDelay} can delay the start of the vote. This must be considered when setting the voting duration compared to the voting delay."
      }
    },
    "version": 1
  },
  "userdoc": {
    "kind": "user",
    "methods": {
      "votingDelay()": {
        "notice": "module:user-config"
      },
      "votingPeriod()": {
        "notice": "module:user-config"
      }
    },
    "version": 1
  }
}